{
  "_format": "hh-sol-artifact-1",
  "contractName": "DecentralizedEcommerce",
  "sourceName": "contracts/EcommerceContract.sol",
  "abi": [
    {
      "inputs": [],
      "stateMutability": "nonpayable",
      "type": "constructor"
    },
    {
      "inputs": [],
      "name": "BelowMinimumPrice",
      "type": "error"
    },
    {
      "inputs": [
        {
          "internalType": "string",
          "name": "errorMessage",
          "type": "string"
        }
      ],
      "name": "DisputeError",
      "type": "error"
    },
    {
      "inputs": [],
      "name": "InSufficientPoints",
      "type": "error"
    },
    {
      "inputs": [],
      "name": "InexistentProduct",
      "type": "error"
    },
    {
      "inputs": [],
      "name": "InsufficientPayment",
      "type": "error"
    },
    {
      "inputs": [],
      "name": "ProductAlreadyRemoved",
      "type": "error"
    },
    {
      "inputs": [],
      "name": "ProductAlreadySold",
      "type": "error"
    },
    {
      "inputs": [],
      "name": "UnauthorizedCaller",
      "type": "error"
    },
    {
      "inputs": [],
      "name": "UnauthorizedSeller",
      "type": "error"
    },
    {
      "anonymous": false,
      "inputs": [
        {
          "indexed": false,
          "internalType": "uint256",
          "name": "productId",
          "type": "uint256"
        },
        {
          "indexed": true,
          "internalType": "address",
          "name": "resolver",
          "type": "address"
        },
        {
          "indexed": true,
          "internalType": "address",
          "name": "winner",
          "type": "address"
        }
      ],
      "name": "DisputeResolved",
      "type": "event"
    },
    {
      "anonymous": false,
      "inputs": [
        {
          "indexed": true,
          "internalType": "address",
          "name": "previousOwner",
          "type": "address"
        },
        {
          "indexed": true,
          "internalType": "address",
          "name": "newOwner",
          "type": "address"
        }
      ],
      "name": "OwnershipTransferred",
      "type": "event"
    },
    {
      "anonymous": false,
      "inputs": [
        {
          "indexed": false,
          "internalType": "uint256",
          "name": "productId",
          "type": "uint256"
        },
        {
          "indexed": false,
          "internalType": "address",
          "name": "seller",
          "type": "address"
        },
        {
          "indexed": false,
          "internalType": "string",
          "name": "cid",
          "type": "string"
        },
        {
          "indexed": false,
          "internalType": "uint256",
          "name": "price",
          "type": "uint256"
        }
      ],
      "name": "ProductCreated",
      "type": "event"
    },
    {
      "anonymous": false,
      "inputs": [
        {
          "indexed": false,
          "internalType": "uint256",
          "name": "productId",
          "type": "uint256"
        },
        {
          "indexed": true,
          "internalType": "address",
          "name": "buyer",
          "type": "address"
        }
      ],
      "name": "PurchaseSuccessful",
      "type": "event"
    },
    {
      "inputs": [
        {
          "internalType": "uint256",
          "name": "_productId",
          "type": "uint256"
        }
      ],
      "name": "buyProduct",
      "outputs": [],
      "stateMutability": "payable",
      "type": "function"
    },
    {
      "inputs": [
        {
          "internalType": "string",
          "name": "cid",
          "type": "string"
        },
        {
          "internalType": "uint256",
          "name": "price",
          "type": "uint256"
        }
      ],
      "name": "createProduct",
      "outputs": [],
      "stateMutability": "nonpayable",
      "type": "function"
    },
    {
      "inputs": [],
      "name": "getAllProducts",
      "outputs": [
        {
          "components": [
            {
              "internalType": "uint256",
              "name": "id",
              "type": "uint256"
            },
            {
              "internalType": "address",
              "name": "seller",
              "type": "address"
            },
            {
              "internalType": "string",
              "name": "cid",
              "type": "string"
            },
            {
              "internalType": "uint256",
              "name": "price",
              "type": "uint256"
            },
            {
              "internalType": "bool",
              "name": "sold",
              "type": "bool"
            }
          ],
          "internalType": "struct DecentralizedEcommerce.Product[]",
          "name": "allProducts",
          "type": "tuple[]"
        }
      ],
      "stateMutability": "view",
      "type": "function"
    },
    {
      "inputs": [
        {
          "internalType": "uint256",
          "name": "_productId",
          "type": "uint256"
        }
      ],
      "name": "getProductsById",
      "outputs": [
        {
          "components": [
            {
              "internalType": "uint256",
              "name": "id",
              "type": "uint256"
            },
            {
              "internalType": "address",
              "name": "seller",
              "type": "address"
            },
            {
              "internalType": "string",
              "name": "cid",
              "type": "string"
            },
            {
              "internalType": "uint256",
              "name": "price",
              "type": "uint256"
            },
            {
              "internalType": "bool",
              "name": "sold",
              "type": "bool"
            }
          ],
          "internalType": "struct DecentralizedEcommerce.Product",
          "name": "_product",
          "type": "tuple"
        }
      ],
      "stateMutability": "view",
      "type": "function"
    },
    {
      "inputs": [
        {
          "internalType": "address",
          "name": "_owner",
          "type": "address"
        }
      ],
      "name": "getProductsByOwnerAddress",
      "outputs": [
        {
          "components": [
            {
              "internalType": "uint256",
              "name": "id",
              "type": "uint256"
            },
            {
              "internalType": "address",
              "name": "seller",
              "type": "address"
            },
            {
              "internalType": "string",
              "name": "cid",
              "type": "string"
            },
            {
              "internalType": "uint256",
              "name": "price",
              "type": "uint256"
            },
            {
              "internalType": "bool",
              "name": "sold",
              "type": "bool"
            }
          ],
          "internalType": "struct DecentralizedEcommerce.Product[]",
          "name": "_products",
          "type": "tuple[]"
        }
      ],
      "stateMutability": "view",
      "type": "function"
    },
    {
      "inputs": [
        {
          "internalType": "address",
          "name": "_user",
          "type": "address"
        }
      ],
      "name": "getUserPoints",
      "outputs": [
        {
          "internalType": "uint256",
          "name": "_userPoints",
          "type": "uint256"
        }
      ],
      "stateMutability": "view",
      "type": "function"
    },
    {
      "inputs": [
        {
          "internalType": "uint256",
          "name": "",
          "type": "uint256"
        }
      ],
      "name": "hasBeenRemoved",
      "outputs": [
        {
          "internalType": "bool",
          "name": "",
          "type": "bool"
        }
      ],
      "stateMutability": "view",
      "type": "function"
    },
    {
      "inputs": [
        {
          "internalType": "uint256",
          "name": "_productId",
          "type": "uint256"
        }
      ],
      "name": "initiateDispute",
      "outputs": [],
      "stateMutability": "nonpayable",
      "type": "function"
    },
    {
      "inputs": [],
      "name": "owner",
      "outputs": [
        {
          "internalType": "address",
          "name": "",
          "type": "address"
        }
      ],
      "stateMutability": "view",
      "type": "function"
    },
    {
      "inputs": [
        {
          "internalType": "uint256",
          "name": "",
          "type": "uint256"
        }
      ],
      "name": "productExists",
      "outputs": [
        {
          "internalType": "bool",
          "name": "",
          "type": "bool"
        }
      ],
      "stateMutability": "view",
      "type": "function"
    },
    {
      "inputs": [
        {
          "internalType": "uint256",
          "name": "",
          "type": "uint256"
        }
      ],
      "name": "productIdToOwner",
      "outputs": [
        {
          "internalType": "address",
          "name": "",
          "type": "address"
        }
      ],
      "stateMutability": "view",
      "type": "function"
    },
    {
      "inputs": [
        {
          "internalType": "uint256",
          "name": "",
          "type": "uint256"
        }
      ],
      "name": "products",
      "outputs": [
        {
          "internalType": "uint256",
          "name": "id",
          "type": "uint256"
        },
        {
          "internalType": "address",
          "name": "seller",
          "type": "address"
        },
        {
          "internalType": "string",
          "name": "cid",
          "type": "string"
        },
        {
          "internalType": "uint256",
          "name": "price",
          "type": "uint256"
        },
        {
          "internalType": "bool",
          "name": "sold",
          "type": "bool"
        }
      ],
      "stateMutability": "view",
      "type": "function"
    },
    {
      "inputs": [
        {
          "internalType": "uint256",
          "name": "",
          "type": "uint256"
        }
      ],
      "name": "productsIdToIndex",
      "outputs": [
        {
          "internalType": "uint256",
          "name": "",
          "type": "uint256"
        }
      ],
      "stateMutability": "view",
      "type": "function"
    },
    {
      "inputs": [
        {
          "internalType": "uint256",
          "name": "",
          "type": "uint256"
        }
      ],
      "name": "productsIdToProducts",
      "outputs": [
        {
          "internalType": "uint256",
          "name": "id",
          "type": "uint256"
        },
        {
          "internalType": "address",
          "name": "seller",
          "type": "address"
        },
        {
          "internalType": "string",
          "name": "cid",
          "type": "string"
        },
        {
          "internalType": "uint256",
          "name": "price",
          "type": "uint256"
        },
        {
          "internalType": "bool",
          "name": "sold",
          "type": "bool"
        }
      ],
      "stateMutability": "view",
      "type": "function"
    },
    {
      "inputs": [
        {
          "internalType": "address payable",
          "name": "user",
          "type": "address"
        }
      ],
      "name": "redeemUserPoints",
      "outputs": [],
      "stateMutability": "nonpayable",
      "type": "function"
    },
    {
      "inputs": [
        {
          "internalType": "uint256",
          "name": "_productId",
          "type": "uint256"
        }
      ],
      "name": "removeProduct",
      "outputs": [],
      "stateMutability": "nonpayable",
      "type": "function"
    },
    {
      "inputs": [],
      "name": "renounceOwnership",
      "outputs": [],
      "stateMutability": "nonpayable",
      "type": "function"
    },
    {
      "inputs": [],
      "name": "resolveDispute",
      "outputs": [],
      "stateMutability": "nonpayable",
      "type": "function"
    },
    {
      "inputs": [
        {
          "internalType": "address",
          "name": "newOwner",
          "type": "address"
        }
      ],
      "name": "transferOwnership",
      "outputs": [],
      "stateMutability": "nonpayable",
      "type": "function"
    },
    {
      "inputs": [
        {
          "internalType": "address",
          "name": "",
          "type": "address"
        }
      ],
      "name": "userPoints",
      "outputs": [
        {
          "internalType": "uint256",
          "name": "",
          "type": "uint256"
        }
      ],
      "stateMutability": "view",
      "type": "function"
    },
    {
      "stateMutability": "payable",
      "type": "receive"
    }
  ],
  "bytecode": "0x60806040526706f05b59d3b200006003556101f460045566038d7ea4c6800060055534801561002d57600080fd5b5061003733610050565b61004b60016100a060201b6114731760201c565b6100a9565b600080546001600160a01b038381166001600160a01b0319831681178455604051919092169283917f8be0079c531659141344cd1fd0a4f28419497f9722a3daafe3b4186f6b6457e09190a35050565b80546001019055565b611e3480620000b96000396000f3fe6080604052600436106101235760003560e01c80638642269e116100a0578063af55ed6411610064578063af55ed641461038d578063d635f82b146103bd578063e9300c6c146103dd578063f2fde38b146103fd578063f50ddbc71461041d57600080fd5b80638642269e146102e65780638da5cb5b146102f9578063a49c580a14610317578063a6288b6f14610337578063aeefe31f1461035757600080fd5b80635ee95cae116100e75780635ee95cae146102255780636081a6c014610245578063715018a61461028057806371635c03146102955780637acc0b20146102b557600080fd5b806302ee3a521461012f57806318d936291461015a57806328b5ad4b1461019a5780633314cb8f146101e85780635b39a33f1461021557600080fd5b3661012a57005b600080fd5b34801561013b57600080fd5b5061014461044a565b6040516101519190611912565b60405180910390f35b34801561016657600080fd5b5061018a610175366004611974565b600b6020526000908152604090205460ff1681565b6040519015158152602001610151565b3480156101a657600080fd5b506101d06101b5366004611974565b600a602052600090815260409020546001600160a01b031681565b6040516001600160a01b039091168152602001610151565b3480156101f457600080fd5b50610208610203366004611974565b61057a565b604051610151919061198d565b34801561022157600080fd5b505b005b34801561023157600080fd5b50610223610240366004611974565b6106a5565b34801561025157600080fd5b50610272610260366004611974565b60086020526000908152604090205481565b604051908152602001610151565b34801561028c57600080fd5b50610223610830565b3480156102a157600080fd5b506102236102b0366004611974565b610842565b3480156102c157600080fd5b506102d56102d0366004611974565b610946565b6040516101519594939291906119a7565b6102236102f4366004611974565b610a1f565b34801561030557600080fd5b506000546001600160a01b03166101d0565b34801561032357600080fd5b506101446103323660046119ff565b610e5a565b34801561034357600080fd5b506102236103523660046119ff565b610fa0565b34801561036357600080fd5b506102726103723660046119ff565b6001600160a01b03166000908152600c602052604090205490565b34801561039957600080fd5b5061018a6103a8366004611974565b600d6020526000908152604090205460ff1681565b3480156103c957600080fd5b506102d56103d8366004611974565b6110fd565b3480156103e957600080fd5b506102236103f8366004611a32565b61112f565b34801561040957600080fd5b506102236104183660046119ff565b6113fa565b34801561042957600080fd5b506102726104383660046119ff565b600c6020526000908152604090205481565b60606006805480602002602001604051908101604052809291908181526020016000905b828210156105715760008481526020908190206040805160a081018252600586029092018054835260018101546001600160a01b031693830193909352600283018054929392918401916104c190611ae7565b80601f01602080910402602001604051908101604052809291908181526020018280546104ed90611ae7565b801561053a5780601f1061050f5761010080835404028352916020019161053a565b820191906000526020600020905b81548152906001019060200180831161051d57829003601f168201915b5050509183525050600382015460208083019190915260049092015460ff161515604090910152908252600192909201910161046e565b50505050905090565b6105b76040518060a001604052806000815260200160006001600160a01b0316815260200160608152602001600081526020016000151581525090565b600082815260076020908152604091829020825160a0810184528154815260018201546001600160a01b031692810192909252600281018054929391929184019161060190611ae7565b80601f016020809104026020016040519081016040528092919081815260200182805461062d90611ae7565b801561067a5780601f1061064f5761010080835404028352916020019161067a565b820191906000526020600020905b81548152906001019060200180831161065d57829003601f168201915b50505091835250506003820154602082015260049091015460ff16151560409091015292915050565b565b6000818152600d6020526040902054819060ff166106d6576040516329c2f8dd60e11b815260040160405180910390fd5b6000828152600760205260409020600101546001600160a01b031633811461071157604051630196966160e51b815260040160405180910390fd5b6000838152600b602052604090205460ff161561074157604051630f90a72b60e11b815260040160405180910390fd5b600061074c8461147c565b9050610757846114c1565b6006818154811061076a5761076a611b21565b6000918252602082206005909102018181556001810180546001600160a01b03191690559061079c600283018261172b565b506000600382018190556004909101805460ff191690558481526007602052604081208181556001810180546001600160a01b0319169055906107e2600283018261172b565b506000600382018190556004909101805460ff19908116909155948152600a6020908152604080832080546001600160a01b0319169055600b90915290208054909416600117909355505050565b610838611681565b6106a360006116db565b6000818152600d6020526040902054819060ff16610873576040516329c2f8dd60e11b815260040160405180910390fd5b6000828152600760205260409020600101546001600160a01b031633036108ee57604051631753519560e01b815260206004820152602360248201527f596f752063616e6e6f74206469737075746520796f7572206f776e2070726f646044820152621d58dd60ea1b60648201526084015b60405180910390fd5b6000828152600760209081526040918290206001015491518481526001600160a01b039092169133917fe1a7c74b62f66920be8ea5c50242d3b2093a1c3ab2262aed114fd0ffdc5e5243910160405180910390a35050565b6006818154811061095657600080fd5b60009182526020909120600590910201805460018201546002830180549294506001600160a01b03909116929161098c90611ae7565b80601f01602080910402602001604051908101604052809291908181526020018280546109b890611ae7565b8015610a055780601f106109da57610100808354040283529160200191610a05565b820191906000526020600020905b8154815290600101906020018083116109e857829003601f168201915b50505050600383015460049093015491929160ff16905085565b6000818152600d6020526040902054819060ff16610a50576040516329c2f8dd60e11b815260040160405180910390fd5b6000828152600760209081526040808320815160a0810183528154815260018201546001600160a01b0316938101939093526002810180549192840191610a9690611ae7565b80601f0160208091040260200160405190810160405280929190818152602001828054610ac290611ae7565b8015610b0f5780601f10610ae457610100808354040283529160200191610b0f565b820191906000526020600020905b815481529060010190602001808311610af257829003601f168201915b5050509183525050600382015460208083019190915260049092015460ff161515604090910152810151606082015191925090341015610b625760405163cd1c886760e01b815260040160405180910390fd5b816080015115610b8557604051631b297ae360e21b815260040160405180910390fd5b600067016345785d8a00008360600151610b9f9190611b4d565b336000908152600c6020526040812080549293508392909190610bc3908490611b6f565b909155505060016080840152336020840152610bde856114c1565b6000858152600a602090815260408083208054336001600160a01b03199182168117909255908452600983528184208054600181810183559186529484902088516005909602019485559287015192840180549091166001600160a01b03909316929092179091558401518491906002820190610c5b9082611bd7565b50606082015160038201556080909101516004909101805460ff19169115159190911790556000610c8b8661147c565b90508360068281548110610ca157610ca1611b21565b6000918252602091829020835160059290920201908155908201516001820180546001600160a01b0319166001600160a01b0390921691909117905560408201516002820190610cf19082611bd7565b50606082015160038201556080909101516004909101805460ff191691151591909117905560008681526007602090815260409182902086518155908601516001820180546001600160a01b0319166001600160a01b03909216919091179055908501518591906002820190610d679082611bd7565b5060608281015160038301556080909201516004909101805460ff1916911515919091179055840151600090610d9f90603290611b4d565b90506000818660600151610db39190611c97565b604051909150309083156108fc029084906000818181858888f19350505050158015610de3573d6000803e3d6000fd5b506040516001600160a01b0386169082156108fc029083906000818181858888f19350505050158015610e1a573d6000803e3d6000fd5b5060405188815233907f4f2bed89ed738fa1a76fe14e828e9c53a46eee7ba81bbad650fe8d9de8435ea69060200160405180910390a25050505050505050565b6001600160a01b0381166000908152600960209081526040808320805482518185028101850190935280835260609492939192909184015b82821015610f955760008481526020908190206040805160a081018252600586029092018054835260018101546001600160a01b03169383019390935260028301805492939291840191610ee590611ae7565b80601f0160208091040260200160405190810160405280929190818152602001828054610f1190611ae7565b8015610f5e5780601f10610f3357610100808354040283529160200191610f5e565b820191906000526020600020905b815481529060010190602001808311610f4157829003601f168201915b5050509183525050600382015460208083019190915260049092015460ff1615156040909101529082526001929092019101610e92565b505050509050919050565b6001600160a01b0381166000818152600c6020526040902054903314610fd957604051635c427cd960e01b815260040160405180910390fd5b600454811015610ffc57604051634ccb78bb60e01b815260040160405180910390fd5b60006005548261100c9190611caa565b90508047101561105e5760405162461bcd60e51b815260206004820152601d60248201527f496e73756666696369656e7420636f6e74726163742062616c616e636500000060448201526064016108e5565b336000818152600c60205260408082208290555190919083908381818185875af1925050503d80600081146110af576040519150601f19603f3d011682016040523d82523d6000602084013e6110b4565b606091505b50509050806110f75760405162461bcd60e51b815260206004820152600f60248201526e151c985b9cd9995c8819985a5b1959608a1b60448201526064016108e5565b50505050565b60076020526000908152604090208054600182015460028301805492936001600160a01b039092169261098c90611ae7565b600061113a60015490565b9050600061114760025490565b905060035483101561116c57604051634d67dcd960e01b815260040160405180910390fd5b6040805160a0810182528381523360208083019182528284018881526060840188905260006080850181905287815260079092529390208251815590516001820180546001600160a01b0319166001600160a01b03909216919091179055915190919060028201906111de9082611bd7565b50606082015160038201556080909101516004909101805491151560ff199283161790556000838152600860209081526040808320859055600d8252808320805490941660019081179094553383526009825280832086845260078352908320815480860183559184529190922081546005909302019182558083015492820180546001600160a01b0319166001600160a01b03949094169390931790925560028082019061128f90840182611cc1565b50600382810154908201556004918201549101805460ff191660ff90921615159190911790556000828152600a602090815260408083208054336001600160a01b0319918216179091556007909252822060068054600181810183559190945281547ff652222313e28459528d920b65115c16c04f3efc82aaedc97be59f3f377c0d3f6005909502948501908155908201547ff652222313e28459528d920b65115c16c04f3efc82aaedc97be59f3f377c0d40850180546001600160a01b039092169190941617909255917ff652222313e28459528d920b65115c16c04f3efc82aaedc97be59f3f377c0d41016113896002840182611cc1565b50600382810154908201556004918201549101805460ff191660ff909216151591909117905560018054810190557f5f25c590b5c7f62ed4186adca32d3118caef07e5020c6cc8268d4136df2cfef8823386866040516113ec9493929190611d94565b60405180910390a150505050565b611402611681565b6001600160a01b0381166114675760405162461bcd60e51b815260206004820152602660248201527f4f776e61626c653a206e6577206f776e657220697320746865207a65726f206160448201526564647265737360d01b60648201526084016108e5565b611470816116db565b50565b80546001019055565b6000818152600d6020526040812054829060ff166114ad576040516329c2f8dd60e11b815260040160405180910390fd5b505060009081526008602052604090205490565b6000818152600a60209081526040808320546001600160a01b031680845260098352818420858552600790935290832090925b825481101561165357816000015483828154811061151457611514611b21565b90600052602060002090600502016000015403611641578254839061153b90600190611c97565b8154811061154b5761154b611b21565b906000526020600020906005020183828154811061156b5761156b611b21565b60009182526020909120825460059092020190815560018083015490820180546001600160a01b0319166001600160a01b039092169190911790556002808201906115b890840182611cc1565b50600382810154908201556004918201549101805460ff191660ff909216151591909117905582548390806115ef576115ef611dcf565b6000828152602081206005600019909301928302018181556001810180546001600160a01b031916905590611627600283018261172b565b5060006003820155600401805460ff191690559055611653565b8061164b81611de5565b9150506114f4565b506001600160a01b0383166000908152600960205260409020825461167a91908490611765565b5050505050565b6000546001600160a01b031633146106a35760405162461bcd60e51b815260206004820181905260248201527f4f776e61626c653a2063616c6c6572206973206e6f7420746865206f776e657260448201526064016108e5565b600080546001600160a01b038381166001600160a01b0319831681178455604051919092169283917f8be0079c531659141344cd1fd0a4f28419497f9722a3daafe3b4186f6b6457e09190a35050565b50805461173790611ae7565b6000825580601f10611747575050565b601f016020900490600052602060002090810190611470919061181c565b82805482825590600052602060002090600502810192821561180c5760005260206000209160050282015b8281111561180c578254825560018084015490830180546001600160a01b0319166001600160a01b0390921691909117905582826002808201906117d690840182611cc1565b50600382810154908201556004918201549101805460ff191660ff90921615159190911790556005928301929190910190611790565b50611818929150611831565b5090565b5b80821115611818576000815560010161181d565b808211156118185760008082556001820180546001600160a01b031916905561185d600283018261172b565b506000600382015560048101805460ff19169055600501611831565b6000815180845260005b8181101561189f57602081850181015186830182015201611883565b506000602082860101526020601f19601f83011685010191505092915050565b8051825260018060a01b0360208201511660208301526000604082015160a060408501526118f060a0850182611879565b9050606083015160608501526080830151151560808501528091505092915050565b6000602080830181845280855180835260408601915060408160051b870101925083870160005b8281101561196757603f198886030184526119558583516118bf565b94509285019290850190600101611939565b5092979650505050505050565b60006020828403121561198657600080fd5b5035919050565b6020815260006119a060208301846118bf565b9392505050565b8581526001600160a01b038516602082015260a0604082018190526000906119d190830186611879565b6060830194909452509015156080909101529392505050565b6001600160a01b038116811461147057600080fd5b600060208284031215611a1157600080fd5b81356119a0816119ea565b634e487b7160e01b600052604160045260246000fd5b60008060408385031215611a4557600080fd5b823567ffffffffffffffff80821115611a5d57600080fd5b818501915085601f830112611a7157600080fd5b813581811115611a8357611a83611a1c565b604051601f8201601f19908116603f01168101908382118183101715611aab57611aab611a1c565b81604052828152886020848701011115611ac457600080fd5b826020860160208301376000602093820184015298969091013596505050505050565b600181811c90821680611afb57607f821691505b602082108103611b1b57634e487b7160e01b600052602260045260246000fd5b50919050565b634e487b7160e01b600052603260045260246000fd5b634e487b7160e01b600052601160045260246000fd5b600082611b6a57634e487b7160e01b600052601260045260246000fd5b500490565b80820180821115611b8257611b82611b37565b92915050565b601f821115611bd257600081815260208120601f850160051c81016020861015611baf5750805b601f850160051c820191505b81811015611bce57828155600101611bbb565b5050505b505050565b815167ffffffffffffffff811115611bf157611bf1611a1c565b611c0581611bff8454611ae7565b84611b88565b602080601f831160018114611c3a5760008415611c225750858301515b600019600386901b1c1916600185901b178555611bce565b600085815260208120601f198616915b82811015611c6957888601518255948401946001909101908401611c4a565b5085821015611c875787850151600019600388901b60f8161c191681555b5050505050600190811b01905550565b81810381811115611b8257611b82611b37565b8082028115828204841417611b8257611b82611b37565b818103611ccc575050565b611cd68254611ae7565b67ffffffffffffffff811115611cee57611cee611a1c565b611cfc81611bff8454611ae7565b6000601f821160018114611d305760008315611d185750848201545b600019600385901b1c1916600184901b17845561167a565b600085815260209020601f19841690600086815260209020845b83811015611d6a5782860154825560019586019590910190602001611d4a565b5085831015611c875793015460001960f8600387901b161c19169092555050600190811b01905550565b8481526001600160a01b0384166020820152608060408201819052600090611dbe90830185611879565b905082606083015295945050505050565b634e487b7160e01b600052603160045260246000fd5b600060018201611df757611df7611b37565b506001019056fea2646970667358221220a9b28c1552cda231befc08618c1dec62cf7129a1a6c1fd5939b53e281a668adf64736f6c63430008120033",
  "linkReferences": {},
  "deployedLinkReferences": {}
}