{
  "_format": "hh-sol-artifact-1",
  "contractName": "DecentralizedEcommerce",
  "sourceName": "contracts/EcommerceContract.sol",
  "abi": [
    {
      "inputs": [],
      "stateMutability": "nonpayable",
      "type": "constructor"
    },
    {
      "inputs": [],
      "name": "BelowMinimumPrice",
      "type": "error"
    },
    {
      "inputs": [
        {
          "internalType": "string",
          "name": "errorMessage",
          "type": "string"
        }
      ],
      "name": "DisputeError",
      "type": "error"
    },
    {
      "inputs": [],
      "name": "InSufficientPoints",
      "type": "error"
    },
    {
      "inputs": [],
      "name": "InexistentProduct",
      "type": "error"
    },
    {
      "inputs": [],
      "name": "InsufficientPayment",
      "type": "error"
    },
    {
      "inputs": [],
      "name": "ProductAlreadyRemoved",
      "type": "error"
    },
    {
      "inputs": [],
      "name": "UnauthorizedCaller",
      "type": "error"
    },
    {
      "inputs": [],
      "name": "UnauthorizedSeller",
      "type": "error"
    },
    {
      "anonymous": false,
      "inputs": [
        {
          "indexed": false,
          "internalType": "uint256",
          "name": "productId",
          "type": "uint256"
        },
        {
          "indexed": true,
          "internalType": "address",
          "name": "resolver",
          "type": "address"
        },
        {
          "indexed": true,
          "internalType": "address",
          "name": "winner",
          "type": "address"
        }
      ],
      "name": "DisputeResolved",
      "type": "event"
    },
    {
      "anonymous": false,
      "inputs": [
        {
          "indexed": true,
          "internalType": "address",
          "name": "previousOwner",
          "type": "address"
        },
        {
          "indexed": true,
          "internalType": "address",
          "name": "newOwner",
          "type": "address"
        }
      ],
      "name": "OwnershipTransferred",
      "type": "event"
    },
    {
      "anonymous": false,
      "inputs": [
        {
          "indexed": false,
          "internalType": "uint256",
          "name": "productId",
          "type": "uint256"
        },
        {
          "indexed": false,
          "internalType": "address",
          "name": "seller",
          "type": "address"
        },
        {
          "indexed": false,
          "internalType": "string",
          "name": "cid",
          "type": "string"
        },
        {
          "indexed": false,
          "internalType": "uint256",
          "name": "price",
          "type": "uint256"
        }
      ],
      "name": "ProductCreated",
      "type": "event"
    },
    {
      "anonymous": false,
      "inputs": [
        {
          "indexed": false,
          "internalType": "uint256",
          "name": "productId",
          "type": "uint256"
        },
        {
          "indexed": true,
          "internalType": "address",
          "name": "buyer",
          "type": "address"
        }
      ],
      "name": "PurchaseSuccessful",
      "type": "event"
    },
    {
      "inputs": [
        {
          "internalType": "uint256",
          "name": "_productId",
          "type": "uint256"
        }
      ],
      "name": "buyProduct",
      "outputs": [],
      "stateMutability": "payable",
      "type": "function"
    },
    {
      "inputs": [
        {
          "internalType": "string",
          "name": "cid",
          "type": "string"
        },
        {
          "internalType": "uint256",
          "name": "price",
          "type": "uint256"
        }
      ],
      "name": "createProduct",
      "outputs": [],
      "stateMutability": "nonpayable",
      "type": "function"
    },
    {
      "inputs": [],
      "name": "getAllProducts",
      "outputs": [
        {
          "components": [
            {
              "internalType": "uint256",
              "name": "id",
              "type": "uint256"
            },
            {
              "internalType": "address",
              "name": "seller",
              "type": "address"
            },
            {
              "internalType": "string",
              "name": "cid",
              "type": "string"
            },
            {
              "internalType": "uint256",
              "name": "price",
              "type": "uint256"
            },
            {
              "internalType": "bool",
              "name": "sold",
              "type": "bool"
            }
          ],
          "internalType": "struct DecentralizedEcommerce.Product[]",
          "name": "allProducts",
          "type": "tuple[]"
        }
      ],
      "stateMutability": "view",
      "type": "function"
    },
    {
      "inputs": [
        {
          "internalType": "uint256",
          "name": "_productId",
          "type": "uint256"
        }
      ],
      "name": "getProductsById",
      "outputs": [
        {
          "components": [
            {
              "internalType": "uint256",
              "name": "id",
              "type": "uint256"
            },
            {
              "internalType": "address",
              "name": "seller",
              "type": "address"
            },
            {
              "internalType": "string",
              "name": "cid",
              "type": "string"
            },
            {
              "internalType": "uint256",
              "name": "price",
              "type": "uint256"
            },
            {
              "internalType": "bool",
              "name": "sold",
              "type": "bool"
            }
          ],
          "internalType": "struct DecentralizedEcommerce.Product",
          "name": "_product",
          "type": "tuple"
        }
      ],
      "stateMutability": "view",
      "type": "function"
    },
    {
      "inputs": [
        {
          "internalType": "address",
          "name": "_owner",
          "type": "address"
        }
      ],
      "name": "getProductsByOwnerAddress",
      "outputs": [
        {
          "components": [
            {
              "internalType": "uint256",
              "name": "id",
              "type": "uint256"
            },
            {
              "internalType": "address",
              "name": "seller",
              "type": "address"
            },
            {
              "internalType": "string",
              "name": "cid",
              "type": "string"
            },
            {
              "internalType": "uint256",
              "name": "price",
              "type": "uint256"
            },
            {
              "internalType": "bool",
              "name": "sold",
              "type": "bool"
            }
          ],
          "internalType": "struct DecentralizedEcommerce.Product[]",
          "name": "_products",
          "type": "tuple[]"
        }
      ],
      "stateMutability": "view",
      "type": "function"
    },
    {
      "inputs": [
        {
          "internalType": "address",
          "name": "_user",
          "type": "address"
        }
      ],
      "name": "getUserPoints",
      "outputs": [
        {
          "internalType": "uint256",
          "name": "_userPoints",
          "type": "uint256"
        }
      ],
      "stateMutability": "view",
      "type": "function"
    },
    {
      "inputs": [
        {
          "internalType": "uint256",
          "name": "",
          "type": "uint256"
        }
      ],
      "name": "hasBeenRemoved",
      "outputs": [
        {
          "internalType": "bool",
          "name": "",
          "type": "bool"
        }
      ],
      "stateMutability": "view",
      "type": "function"
    },
    {
      "inputs": [
        {
          "internalType": "uint256",
          "name": "_productId",
          "type": "uint256"
        }
      ],
      "name": "initiateDispute",
      "outputs": [],
      "stateMutability": "nonpayable",
      "type": "function"
    },
    {
      "inputs": [],
      "name": "owner",
      "outputs": [
        {
          "internalType": "address",
          "name": "",
          "type": "address"
        }
      ],
      "stateMutability": "view",
      "type": "function"
    },
    {
      "inputs": [
        {
          "internalType": "uint256",
          "name": "",
          "type": "uint256"
        }
      ],
      "name": "productExists",
      "outputs": [
        {
          "internalType": "bool",
          "name": "",
          "type": "bool"
        }
      ],
      "stateMutability": "view",
      "type": "function"
    },
    {
      "inputs": [
        {
          "internalType": "uint256",
          "name": "",
          "type": "uint256"
        }
      ],
      "name": "productIdToOwner",
      "outputs": [
        {
          "internalType": "address",
          "name": "",
          "type": "address"
        }
      ],
      "stateMutability": "view",
      "type": "function"
    },
    {
      "inputs": [
        {
          "internalType": "uint256",
          "name": "",
          "type": "uint256"
        }
      ],
      "name": "products",
      "outputs": [
        {
          "internalType": "uint256",
          "name": "id",
          "type": "uint256"
        },
        {
          "internalType": "address",
          "name": "seller",
          "type": "address"
        },
        {
          "internalType": "string",
          "name": "cid",
          "type": "string"
        },
        {
          "internalType": "uint256",
          "name": "price",
          "type": "uint256"
        },
        {
          "internalType": "bool",
          "name": "sold",
          "type": "bool"
        }
      ],
      "stateMutability": "view",
      "type": "function"
    },
    {
      "inputs": [
        {
          "internalType": "uint256",
          "name": "",
          "type": "uint256"
        }
      ],
      "name": "productsIdToIndex",
      "outputs": [
        {
          "internalType": "uint256",
          "name": "",
          "type": "uint256"
        }
      ],
      "stateMutability": "view",
      "type": "function"
    },
    {
      "inputs": [
        {
          "internalType": "uint256",
          "name": "",
          "type": "uint256"
        }
      ],
      "name": "productsIdToProducts",
      "outputs": [
        {
          "internalType": "uint256",
          "name": "id",
          "type": "uint256"
        },
        {
          "internalType": "address",
          "name": "seller",
          "type": "address"
        },
        {
          "internalType": "string",
          "name": "cid",
          "type": "string"
        },
        {
          "internalType": "uint256",
          "name": "price",
          "type": "uint256"
        },
        {
          "internalType": "bool",
          "name": "sold",
          "type": "bool"
        }
      ],
      "stateMutability": "view",
      "type": "function"
    },
    {
      "inputs": [
        {
          "internalType": "address payable",
          "name": "user",
          "type": "address"
        }
      ],
      "name": "redeemUserPoints",
      "outputs": [],
      "stateMutability": "nonpayable",
      "type": "function"
    },
    {
      "inputs": [
        {
          "internalType": "uint256",
          "name": "_productId",
          "type": "uint256"
        }
      ],
      "name": "removeProduct",
      "outputs": [],
      "stateMutability": "nonpayable",
      "type": "function"
    },
    {
      "inputs": [],
      "name": "renounceOwnership",
      "outputs": [],
      "stateMutability": "nonpayable",
      "type": "function"
    },
    {
      "inputs": [],
      "name": "resolveDispute",
      "outputs": [],
      "stateMutability": "nonpayable",
      "type": "function"
    },
    {
      "inputs": [
        {
          "internalType": "address",
          "name": "newOwner",
          "type": "address"
        }
      ],
      "name": "transferOwnership",
      "outputs": [],
      "stateMutability": "nonpayable",
      "type": "function"
    },
    {
      "inputs": [
        {
          "internalType": "address",
          "name": "",
          "type": "address"
        }
      ],
      "name": "userPoints",
      "outputs": [
        {
          "internalType": "uint256",
          "name": "",
          "type": "uint256"
        }
      ],
      "stateMutability": "view",
      "type": "function"
    },
    {
      "stateMutability": "payable",
      "type": "receive"
    }
  ],
  "bytecode": "0x60806040526706f05b59d3b200006003556101f460045566038d7ea4c6800060055534801561002d57600080fd5b5061003733610050565b61004b60016100a060201b6112971760201c565b6100a9565b600080546001600160a01b038381166001600160a01b0319831681178455604051919092169283917f8be0079c531659141344cd1fd0a4f28419497f9722a3daafe3b4186f6b6457e09190a35050565b80546001019055565b611c5a806100b86000396000f3fe6080604052600436106101235760003560e01c80638642269e116100a0578063af55ed6411610064578063af55ed641461038d578063d635f82b146103bd578063e9300c6c146103dd578063f2fde38b146103fd578063f50ddbc71461041d57600080fd5b80638642269e146102e65780638da5cb5b146102f9578063a49c580a14610317578063a6288b6f14610337578063aeefe31f1461035757600080fd5b80635ee95cae116100e75780635ee95cae146102255780636081a6c014610245578063715018a61461028057806371635c03146102955780637acc0b20146102b557600080fd5b806302ee3a521461012f57806318d936291461015a57806328b5ad4b1461019a5780633314cb8f146101e85780635b39a33f1461021557600080fd5b3661012a57005b600080fd5b34801561013b57600080fd5b5061014461044a565b6040516101519190611736565b60405180910390f35b34801561016657600080fd5b5061018a610175366004611798565b600b6020526000908152604090205460ff1681565b6040519015158152602001610151565b3480156101a657600080fd5b506101d06101b5366004611798565b600a602052600090815260409020546001600160a01b031681565b6040516001600160a01b039091168152602001610151565b3480156101f457600080fd5b50610208610203366004611798565b61057a565b60405161015191906117b1565b34801561022157600080fd5b505b005b34801561023157600080fd5b50610223610240366004611798565b6106a5565b34801561025157600080fd5b50610272610260366004611798565b60086020526000908152604090205481565b604051908152602001610151565b34801561028c57600080fd5b50610223610830565b3480156102a157600080fd5b506102236102b0366004611798565b610842565b3480156102c157600080fd5b506102d56102d0366004611798565b610946565b6040516101519594939291906117cb565b6102236102f4366004611798565b610a1f565b34801561030557600080fd5b506000546001600160a01b03166101d0565b34801561032357600080fd5b50610144610332366004611823565b610d30565b34801561034357600080fd5b50610223610352366004611823565b610e76565b34801561036357600080fd5b50610272610372366004611823565b6001600160a01b03166000908152600c602052604090205490565b34801561039957600080fd5b5061018a6103a8366004611798565b600d6020526000908152604090205460ff1681565b3480156103c957600080fd5b506102d56103d8366004611798565b610f21565b3480156103e957600080fd5b506102236103f8366004611856565b610f53565b34801561040957600080fd5b50610223610418366004611823565b61121e565b34801561042957600080fd5b50610272610438366004611823565b600c6020526000908152604090205481565b60606006805480602002602001604051908101604052809291908181526020016000905b828210156105715760008481526020908190206040805160a081018252600586029092018054835260018101546001600160a01b031693830193909352600283018054929392918401916104c19061190b565b80601f01602080910402602001604051908101604052809291908181526020018280546104ed9061190b565b801561053a5780601f1061050f5761010080835404028352916020019161053a565b820191906000526020600020905b81548152906001019060200180831161051d57829003601f168201915b5050509183525050600382015460208083019190915260049092015460ff161515604090910152908252600192909201910161046e565b50505050905090565b6105b76040518060a001604052806000815260200160006001600160a01b0316815260200160608152602001600081526020016000151581525090565b600082815260076020908152604091829020825160a0810184528154815260018201546001600160a01b03169281019290925260028101805492939192918401916106019061190b565b80601f016020809104026020016040519081016040528092919081815260200182805461062d9061190b565b801561067a5780601f1061064f5761010080835404028352916020019161067a565b820191906000526020600020905b81548152906001019060200180831161065d57829003601f168201915b50505091835250506003820154602082015260049091015460ff16151560409091015292915050565b565b6000818152600d6020526040902054819060ff166106d6576040516329c2f8dd60e11b815260040160405180910390fd5b6000828152600760205260409020600101546001600160a01b031633811461071157604051630196966160e51b815260040160405180910390fd5b6000838152600b602052604090205460ff161561074157604051630f90a72b60e11b815260040160405180910390fd5b600061074c846112a0565b9050610757846112e5565b6006818154811061076a5761076a611945565b6000918252602082206005909102018181556001810180546001600160a01b03191690559061079c600283018261154f565b506000600382018190556004909101805460ff191690558481526007602052604081208181556001810180546001600160a01b0319169055906107e2600283018261154f565b506000600382018190556004909101805460ff19908116909155948152600a6020908152604080832080546001600160a01b0319169055600b90915290208054909416600117909355505050565b6108386114a5565b6106a360006114ff565b6000818152600d6020526040902054819060ff16610873576040516329c2f8dd60e11b815260040160405180910390fd5b6000828152600760205260409020600101546001600160a01b031633036108ee57604051631753519560e01b815260206004820152602360248201527f596f752063616e6e6f74206469737075746520796f7572206f776e2070726f646044820152621d58dd60ea1b60648201526084015b60405180910390fd5b6000828152600760209081526040918290206001015491518481526001600160a01b039092169133917fe1a7c74b62f66920be8ea5c50242d3b2093a1c3ab2262aed114fd0ffdc5e5243910160405180910390a35050565b6006818154811061095657600080fd5b60009182526020909120600590910201805460018201546002830180549294506001600160a01b03909116929161098c9061190b565b80601f01602080910402602001604051908101604052809291908181526020018280546109b89061190b565b8015610a055780601f106109da57610100808354040283529160200191610a05565b820191906000526020600020905b8154815290600101906020018083116109e857829003601f168201915b50505050600383015460049093015491929160ff16905085565b6000818152600d6020526040902054819060ff16610a50576040516329c2f8dd60e11b815260040160405180910390fd5b6000828152600760209081526040808320815160a0810183528154815260018201546001600160a01b0316938101939093526002810180549192840191610a969061190b565b80601f0160208091040260200160405190810160405280929190818152602001828054610ac29061190b565b8015610b0f5780601f10610ae457610100808354040283529160200191610b0f565b820191906000526020600020905b815481529060010190602001808311610af257829003601f168201915b50505091835250506003820154602082015260049091015460ff1615156040909101526060810151909150341015610b5a5760405163cd1c886760e01b815260040160405180910390fd5b6000670de0b6b3a76400008260600151610b749190611971565b336000908152600c6020526040812080549293508392909190610b98908490611993565b909155505060016080830152336020830152610bb3846112e5565b6000848152600a602090815260408083208054336001600160a01b0319918216811790925590845260098352818420888552600784529184208254600181810185559386529390942084546005909402019283558382015491830180546001600160a01b0390931692909116919091179055600280820190610c37908401826119fb565b50600382810154908201556004918201549101805460ff191660ff909216151591909117905560208201516060830151600090610c7690603290611971565b90506000818560600151610c8a9190611ad8565b604051909150309083156108fc029084906000818181858888f19350505050158015610cba573d6000803e3d6000fd5b506040516001600160a01b0384169082156108fc029083906000818181858888f19350505050158015610cf1573d6000803e3d6000fd5b5060405187815233907f4f2bed89ed738fa1a76fe14e828e9c53a46eee7ba81bbad650fe8d9de8435ea69060200160405180910390a250505050505050565b6001600160a01b0381166000908152600960209081526040808320805482518185028101850190935280835260609492939192909184015b82821015610e6b5760008481526020908190206040805160a081018252600586029092018054835260018101546001600160a01b03169383019390935260028301805492939291840191610dbb9061190b565b80601f0160208091040260200160405190810160405280929190818152602001828054610de79061190b565b8015610e345780601f10610e0957610100808354040283529160200191610e34565b820191906000526020600020905b815481529060010190602001808311610e1757829003601f168201915b5050509183525050600382015460208083019190915260049092015460ff1615156040909101529082526001929092019101610d68565b505050509050919050565b6001600160a01b0381166000818152600c6020526040902054903314610eaf57604051635c427cd960e01b815260040160405180910390fd5b600454811015610ed257604051634ccb78bb60e01b815260040160405180910390fd5b600060055482610ee29190611aeb565b6040519091506001600160a01b0384169082156108fc029083906000818181858888f19350505050158015610f1b573d6000803e3d6000fd5b50505050565b60076020526000908152604090208054600182015460028301805492936001600160a01b039092169261098c9061190b565b6000610f5e60015490565b90506000610f6b60025490565b9050600354831015610f9057604051634d67dcd960e01b815260040160405180910390fd5b6040805160a0810182528381523360208083019182528284018881526060840188905260006080850181905287815260079092529390208251815590516001820180546001600160a01b0319166001600160a01b03909216919091179055915190919060028201906110029082611b02565b50606082015160038201556080909101516004909101805491151560ff199283161790556000838152600860209081526040808320859055600d8252808320805490941660019081179094553383526009825280832086845260078352908320815480860183559184529190922081546005909302019182558083015492820180546001600160a01b0319166001600160a01b0394909416939093179092556002808201906110b3908401826119fb565b50600382810154908201556004918201549101805460ff191660ff90921615159190911790556000828152600a602090815260408083208054336001600160a01b0319918216179091556007909252822060068054600181810183559190945281547ff652222313e28459528d920b65115c16c04f3efc82aaedc97be59f3f377c0d3f6005909502948501908155908201547ff652222313e28459528d920b65115c16c04f3efc82aaedc97be59f3f377c0d40850180546001600160a01b039092169190941617909255917ff652222313e28459528d920b65115c16c04f3efc82aaedc97be59f3f377c0d41016111ad60028401826119fb565b50600382810154908201556004918201549101805460ff191660ff909216151591909117905560018054810190557f5f25c590b5c7f62ed4186adca32d3118caef07e5020c6cc8268d4136df2cfef8823386866040516112109493929190611bba565b60405180910390a150505050565b6112266114a5565b6001600160a01b03811661128b5760405162461bcd60e51b815260206004820152602660248201527f4f776e61626c653a206e6577206f776e657220697320746865207a65726f206160448201526564647265737360d01b60648201526084016108e5565b611294816114ff565b50565b80546001019055565b6000818152600d6020526040812054829060ff166112d1576040516329c2f8dd60e11b815260040160405180910390fd5b505060009081526008602052604090205490565b6000818152600a60209081526040808320546001600160a01b031680845260098352818420858552600790935290832090925b825481101561147757816000015483828154811061133857611338611945565b90600052602060002090600502016000015403611465578254839061135f90600190611ad8565b8154811061136f5761136f611945565b906000526020600020906005020183828154811061138f5761138f611945565b60009182526020909120825460059092020190815560018083015490820180546001600160a01b0319166001600160a01b039092169190911790556002808201906113dc908401826119fb565b50600382810154908201556004918201549101805460ff191660ff9092161515919091179055825483908061141357611413611bf5565b6000828152602081206005600019909301928302018181556001810180546001600160a01b03191690559061144b600283018261154f565b5060006003820155600401805460ff191690559055611477565b8061146f81611c0b565b915050611318565b506001600160a01b0383166000908152600960205260409020825461149e91908490611589565b5050505050565b6000546001600160a01b031633146106a35760405162461bcd60e51b815260206004820181905260248201527f4f776e61626c653a2063616c6c6572206973206e6f7420746865206f776e657260448201526064016108e5565b600080546001600160a01b038381166001600160a01b0319831681178455604051919092169283917f8be0079c531659141344cd1fd0a4f28419497f9722a3daafe3b4186f6b6457e09190a35050565b50805461155b9061190b565b6000825580601f1061156b575050565b601f0160209004906000526020600020908101906112949190611640565b8280548282559060005260206000209060050281019282156116305760005260206000209160050282015b82811115611630578254825560018084015490830180546001600160a01b0319166001600160a01b0390921691909117905582826002808201906115fa908401826119fb565b50600382810154908201556004918201549101805460ff191660ff909216151591909117905560059283019291909101906115b4565b5061163c929150611655565b5090565b5b8082111561163c5760008155600101611641565b8082111561163c5760008082556001820180546001600160a01b0319169055611681600283018261154f565b506000600382015560048101805460ff19169055600501611655565b6000815180845260005b818110156116c3576020818501810151868301820152016116a7565b506000602082860101526020601f19601f83011685010191505092915050565b8051825260018060a01b0360208201511660208301526000604082015160a0604085015261171460a085018261169d565b9050606083015160608501526080830151151560808501528091505092915050565b6000602080830181845280855180835260408601915060408160051b870101925083870160005b8281101561178b57603f198886030184526117798583516116e3565b9450928501929085019060010161175d565b5092979650505050505050565b6000602082840312156117aa57600080fd5b5035919050565b6020815260006117c460208301846116e3565b9392505050565b8581526001600160a01b038516602082015260a0604082018190526000906117f59083018661169d565b6060830194909452509015156080909101529392505050565b6001600160a01b038116811461129457600080fd5b60006020828403121561183557600080fd5b81356117c48161180e565b634e487b7160e01b600052604160045260246000fd5b6000806040838503121561186957600080fd5b823567ffffffffffffffff8082111561188157600080fd5b818501915085601f83011261189557600080fd5b8135818111156118a7576118a7611840565b604051601f8201601f19908116603f011681019083821181831017156118cf576118cf611840565b816040528281528860208487010111156118e857600080fd5b826020860160208301376000602093820184015298969091013596505050505050565b600181811c9082168061191f57607f821691505b60208210810361193f57634e487b7160e01b600052602260045260246000fd5b50919050565b634e487b7160e01b600052603260045260246000fd5b634e487b7160e01b600052601160045260246000fd5b60008261198e57634e487b7160e01b600052601260045260246000fd5b500490565b808201808211156119a6576119a661195b565b92915050565b601f8211156119f657600081815260208120601f850160051c810160208610156119d35750805b601f850160051c820191505b818110156119f2578281556001016119df565b5050505b505050565b818103611a06575050565b611a10825461190b565b67ffffffffffffffff811115611a2857611a28611840565b611a3c81611a36845461190b565b846119ac565b6000601f821160018114611a705760008315611a585750848201545b600019600385901b1c1916600184901b17845561149e565b600085815260209020601f19841690600086815260209020845b83811015611aaa5782860154825560019586019590910190602001611a8a565b5085831015611ac85781850154600019600388901b60f8161c191681555b5050505050600190811b01905550565b818103818111156119a6576119a661195b565b80820281158282048414176119a6576119a661195b565b815167ffffffffffffffff811115611b1c57611b1c611840565b611b2a81611a36845461190b565b602080601f831160018114611b5f5760008415611b475750858301515b600019600386901b1c1916600185901b1785556119f2565b600085815260208120601f198616915b82811015611b8e57888601518255948401946001909101908401611b6f565b5085821015611ac857939096015160001960f8600387901b161c19169092555050600190811b01905550565b8481526001600160a01b0384166020820152608060408201819052600090611be49083018561169d565b905082606083015295945050505050565b634e487b7160e01b600052603160045260246000fd5b600060018201611c1d57611c1d61195b565b506001019056fea2646970667358221220b682f1750d391ecb1e584a947bebe6545bd06a2e79f3d5e4832174f69dd578c864736f6c63430008120033",
  "linkReferences": {},
  "deployedLinkReferences": {}
}